{
  "contractName": "ExampleApp",
  "abi": [
    {
      "inputs": [
        {
          "internalType": "address",
          "name": "tokenAddress",
          "type": "address"
        },
        {
          "internalType": "address",
          "name": "appWalletAddress",
          "type": "address"
        }
      ],
      "payable": false,
      "stateMutability": "nonpayable",
      "type": "constructor"
    },
    {
      "constant": false,
      "inputs": [
        {
          "internalType": "address",
          "name": "_newAddress",
          "type": "address"
        }
      ],
      "name": "setAppWalletAddress",
      "outputs": [],
      "payable": false,
      "stateMutability": "nonpayable",
      "type": "function"
    },
    {
      "constant": false,
      "inputs": [
        {
          "internalType": "address",
          "name": "_to",
          "type": "address"
        },
        {
          "internalType": "uint256",
          "name": "_tokenId",
          "type": "uint256"
        },
        {
          "internalType": "string",
          "name": "_tokenURI",
          "type": "string"
        }
      ],
      "name": "mint",
      "outputs": [
        {
          "internalType": "bool",
          "name": "",
          "type": "bool"
        }
      ],
      "payable": false,
      "stateMutability": "nonpayable",
      "type": "function"
    }
  ],
  "bytecode": "0x608060405234801561001057600080fd5b506040516105aa3803806105aa8339818101604052604081101561003357600080fd5b81019080805190602001909291908051906020019092919050505080600160006101000a81548173ffffffffffffffffffffffffffffffffffffffff021916908373ffffffffffffffffffffffffffffffffffffffff160217905550816000806101000a81548173ffffffffffffffffffffffffffffffffffffffff021916908373ffffffffffffffffffffffffffffffffffffffff16021790555050506104ca806100e06000396000f3fe608060405234801561001057600080fd5b50600436106100365760003560e01c8063a21471bb1461003b578063d3fc98641461007f575b600080fd5b61007d6004803603602081101561005157600080fd5b81019080803573ffffffffffffffffffffffffffffffffffffffff16906020019092919050505061017c565b005b6101626004803603606081101561009557600080fd5b81019080803573ffffffffffffffffffffffffffffffffffffffff16906020019092919080359060200190929190803590602001906401000000008111156100dc57600080fd5b8201836020820111156100ee57600080fd5b8035906020019184600183028401116401000000008311171561011057600080fd5b91908080601f016020809104026020016040519081016040528093929190818152602001838380828437600081840152601f19601f820116905080830192505050505050509192919290505050610266565b604051808215151515815260200191505060405180910390f35b600160009054906101000a900473ffffffffffffffffffffffffffffffffffffffff1673ffffffffffffffffffffffffffffffffffffffff163373ffffffffffffffffffffffffffffffffffffffff1614610222576040517f08c379a000000000000000000000000000000000000000000000000000000000815260040180806020018281038252602e815260200180610468602e913960400191505060405180910390fd5b80600160006101000a81548173ffffffffffffffffffffffffffffffffffffffff021916908373ffffffffffffffffffffffffffffffffffffffff16021790555050565b6000600160009054906101000a900473ffffffffffffffffffffffffffffffffffffffff1673ffffffffffffffffffffffffffffffffffffffff163373ffffffffffffffffffffffffffffffffffffffff161461030e576040517f08c379a000000000000000000000000000000000000000000000000000000000815260040180806020018281038252602e815260200180610468602e913960400191505060405180910390fd5b6000809054906101000a900473ffffffffffffffffffffffffffffffffffffffff1673ffffffffffffffffffffffffffffffffffffffff166350bb4e7f8585856040518463ffffffff1660e01b8152600401808473ffffffffffffffffffffffffffffffffffffffff1673ffffffffffffffffffffffffffffffffffffffff16815260200183815260200180602001828103825283818151815260200191508051906020019080838360005b838110156103d55780820151818401526020810190506103ba565b50505050905090810190601f1680156104025780820380516001836020036101000a031916815260200191505b50945050505050602060405180830381600087803b15801561042357600080fd5b505af1158015610437573d6000803e3d6000fd5b505050506040513d602081101561044d57600080fd5b81019080805190602001909291905050509050939250505056fe54686973206d7573742062652063616c6c65642066726f6d2074686520656e74657270726973652077616c6c6574a265627a7a72315820bea1c097f9f70a51b48e83ef3658f7109090d98316cbe8441572fdcdfe670cbd64736f6c63430005100032",
  "source": "pragma solidity ^0.5.0;\n\nimport \"./LimitedMintableNonFungibleToken.sol\";\n\n/**\n This contract acts as a gateway between App Wallet and the token contract.\n We register this contract with the token as a minter, and this contract ensures that\n only the App Wallet can mint from here. By separating out the App Wallet interface from the\n basic token interface, we can perform upgrades to application functionality without touching the token.\n */\ncontract ExampleApp {\n\n    LimitedMintableNonFungibleToken token;\n    address appWallet;\n\n    modifier onlyEnterpriseWallet() {\n        require (msg.sender == appWallet, 'This must be called from the enterprise wallet');\n        _;\n    }\n\n    constructor(address tokenAddress, address appWalletAddress) public {\n        appWallet = appWalletAddress;\n        token = LimitedMintableNonFungibleToken(tokenAddress);\n    }\n\n    function setAppWalletAddress(address _newAddress) public onlyEnterpriseWallet {\n        appWallet = _newAddress;\n    }\n\n    function mint(address _to, uint256 _tokenId, string memory _tokenURI) public onlyEnterpriseWallet returns (bool) {\n        return token.mintWithTokenURI(_to, _tokenId, _tokenURI);\n    }\n\n}\n",
  "sourcePath": "/Users/ptescher/Development/BitskiCo/example-stripe-nft/contracts/ExampleApp.sol",
  "compiler": {
    "name": "solc",
    "version": "0.5.16+commit.9c3226ce.Emscripten.clang"
  },
  "schemaVersion": "3.1.0",
  "updatedAt": "2020-05-12T21:08:05.841Z",
  "networkType": "ethereum",
  "devdoc": {
    "methods": {}
  },
  "userdoc": {
    "methods": {},
    "notice": "This contract acts as a gateway between App Wallet and the token contract. We register this contract with the token as a minter, and this contract ensures that only the App Wallet can mint from here. By separating out the App Wallet interface from the basic token interface, we can perform upgrades to application functionality without touching the token."
  }
}