{
  "contractName": "ExampleApp",
  "abi": [
    {
      "inputs": [
        {
          "name": "tokenAddress",
          "type": "address"
        },
        {
          "name": "appWalletAddress",
          "type": "address"
        }
      ],
      "payable": false,
      "stateMutability": "nonpayable",
      "type": "constructor",
      "signature": "constructor"
    },
    {
      "constant": false,
      "inputs": [
        {
          "name": "_newAddress",
          "type": "address"
        }
      ],
      "name": "setAppWalletAddress",
      "outputs": [],
      "payable": false,
      "stateMutability": "nonpayable",
      "type": "function",
      "signature": "0xa21471bb"
    },
    {
      "constant": false,
      "inputs": [
        {
          "name": "_to",
          "type": "address"
        },
        {
          "name": "_tokenId",
          "type": "uint256"
        },
        {
          "name": "_tokenURI",
          "type": "string"
        }
      ],
      "name": "mint",
      "outputs": [
        {
          "name": "",
          "type": "bool"
        }
      ],
      "payable": false,
      "stateMutability": "nonpayable",
      "type": "function",
      "signature": "0xd3fc9864"
    }
  ],
  "bytecode": "0x608060405234801561001057600080fd5b506040516040806105288339810180604052604081101561003057600080fd5b81019080805190602001909291908051906020019092919050505080600160006101000a81548173ffffffffffffffffffffffffffffffffffffffff021916908373ffffffffffffffffffffffffffffffffffffffff160217905550816000806101000a81548173ffffffffffffffffffffffffffffffffffffffff021916908373ffffffffffffffffffffffffffffffffffffffff160217905550505061044b806100dd6000396000f3fe60806040526004361061004c576000357c0100000000000000000000000000000000000000000000000000000000900463ffffffff168063a21471bb14610051578063d3fc9864146100a2575b600080fd5b34801561005d57600080fd5b506100a06004803603602081101561007457600080fd5b81019080803573ffffffffffffffffffffffffffffffffffffffff1690602001909291905050506101ac565b005b3480156100ae57600080fd5b50610192600480360360608110156100c557600080fd5b81019080803573ffffffffffffffffffffffffffffffffffffffff169060200190929190803590602001909291908035906020019064010000000081111561010c57600080fd5b82018360208201111561011e57600080fd5b8035906020019184600183028401116401000000008311171561014057600080fd5b91908080601f016020809104026020016040519081016040528093929190818152602001838380828437600081840152601f19601f82011690508083019250505050505050919291929050505061024c565b604051808215151515815260200191505060405180910390f35b600160009054906101000a900473ffffffffffffffffffffffffffffffffffffffff1673ffffffffffffffffffffffffffffffffffffffff163373ffffffffffffffffffffffffffffffffffffffff1614151561020857600080fd5b80600160006101000a81548173ffffffffffffffffffffffffffffffffffffffff021916908373ffffffffffffffffffffffffffffffffffffffff16021790555050565b6000600160009054906101000a900473ffffffffffffffffffffffffffffffffffffffff1673ffffffffffffffffffffffffffffffffffffffff163373ffffffffffffffffffffffffffffffffffffffff161415156102aa57600080fd5b6000809054906101000a900473ffffffffffffffffffffffffffffffffffffffff1673ffffffffffffffffffffffffffffffffffffffff166350bb4e7f8585856040518463ffffffff167c0100000000000000000000000000000000000000000000000000000000028152600401808473ffffffffffffffffffffffffffffffffffffffff1673ffffffffffffffffffffffffffffffffffffffff16815260200183815260200180602001828103825283818151815260200191508051906020019080838360005b8381101561038d578082015181840152602081019050610372565b50505050905090810190601f1680156103ba5780820380516001836020036101000a031916815260200191505b50945050505050602060405180830381600087803b1580156103db57600080fd5b505af11580156103ef573d6000803e3d6000fd5b505050506040513d602081101561040557600080fd5b81019080805190602001909291905050509050939250505056fea165627a7a7230582048f6ae6cb409925862a6fead84391c9592bc3d3bea320c3348bfa4cd28cd8f680029",
  "source": "pragma solidity ^0.5.0;\n\nimport \"./LimitedMintableNonFungibleToken.sol\";\n\n/**\n This contract acts as a gateway between App Wallet and the token contract.\n We register this contract with the token as a minter, and this contract ensures that\n only the App Wallet can mint from here. By separating out the App Wallet interface from the\n basic token interface, we can perform upgrades to application functionality without touching the token.\n */\ncontract ExampleApp {\n\n    LimitedMintableNonFungibleToken token;\n    address appWallet;\n\n    modifier onlyAppWallet() {\n        require (msg.sender == appWallet);\n        _;\n    }\n\n    constructor(address tokenAddress, address appWalletAddress) public {\n        appWallet = appWalletAddress;\n        token = LimitedMintableNonFungibleToken(tokenAddress);\n    }\n\n    function setAppWalletAddress(address _newAddress) public onlyAppWallet {\n        appWallet = _newAddress;\n    }\n\n    function mint(address _to, uint256 _tokenId, string memory _tokenURI) public onlyAppWallet returns (bool) {\n        return token.mintWithTokenURI(_to, _tokenId, _tokenURI);\n    }\n\n}\n",
  "sourcePath": "/Users/jp/Work/example-stripe-nft/contracts/ExampleApp.sol",
  "compiler": {
    "name": "solc",
    "version": "0.5.0+commit.1d4f565a.Emscripten.clang"
  },
  "schemaVersion": "3.0.1",
  "updatedAt": "2019-01-16T19:03:45.718Z",
  "devdoc": {
    "methods": {}
  },
  "userdoc": {
    "methods": {},
    "notice": "This contract acts as a gateway between App Wallet and the token contract. We register this contract with the token as a minter, and this contract ensures that only the App Wallet can mint from here. By separating out the App Wallet interface from the basic token interface, we can perform upgrades to application functionality without touching the token."
  }
}